:1000000000308A00792D0000BA0803191B2803303C
:10001000BC00E830BB003B083C0403191928213020
:10002000F700F70B112864003B080319BC03BB035E
:100030000B28BA0304280034831686170617861681
:1000400085158514851705150514051783120034C9
:10005000BF08031939280A30C000C008031937281F
:100060002130F700F70B32286400C0032D28BF03AE
:1000700028280034BC013808B1003908B2003A0819
:10008000B3003B08B4003808AD003908AF003A08A7
:10009000AE003B08B0001C202D08703C031D6A28F0
:1000A0003008013A03195B28033A03196028013A22
:1000B000031965286A2886138316861383126A2813
:1000C00006138316061383126A2886128316861275
:1000D00083126A282D086E3C031D88283008013AD7
:1000E00003197928033A03197E28013A0319832852
:1000F0008828861783168613831288280617831686
:10010000061383128828861683168612831288287F
:100110002D08703C031DA6282E08013A03199728C4
:10012000033A03199C28013A0319A128A62885152A
:10013000831685118312A6288514831685108312D1
:10014000A6288517831685138312A6282D086E3CD2
:10015000031DC4282E08013A0319B528033A0319D0
:10016000BA28013A0319BF28C428851183168511BE
:100170008312C4288510831685108312C428851322
:10018000831685138312C428BD012D08703C031DFE
:100190006B292C18E6282F08013A0319D628033AB0
:1001A0000319DB28013A0319E028E5280515831611
:1001B00005118312E5280514831605108312E5281E
:1001C0000517831605138312E52800292F08013A25
:1001D0000319F128033A0319F628013A0319FB28F9
:1001E000002985158316851183120029851483162D
:1001F0008510831200298517831685138312002921
:100200000A30BF0028202E08013A03190E29033AAC
:1002100003191229013A031916291A293E10861BBF
:100220003E141A293E10061B3E141A293E10861A47
:100230003E141A292C1837292F08013A03192729A7
:10024000033A03192C29013A0319312936290511DA
:1002500083160511831236290510831605108312A3
:1002600036290513831605138312362951292F08C1
:10027000013A03194229033A03194729013A03199C
:100280004C29512985118316851183125129851016
:1002900083168510831251298513831685138312C3
:1002A00051290A30BF0028202E08013A03195F297E
:1002B000033A03196329013A031967296B29BE1010
:1002C000861BBE146B29BE10061BBE146B29BE1004
:1002D000861ABE146B292D086E3C031D112A2C189A
:1002E0008C292F08013A03197C29033A0319812923
:1002F000013A031986298B290511831605118312EA
:100300008B2905108316051083128B29051383167C
:10031000051383128B29A6292F08013A031997295F
:10032000033A03199C29013A0319A129A629851129
:10033000831685118312A6298510831685108312D2
:10034000A6298513831685138312A6290A30BF00B8
:1003500028202E08013A0319B429033A0319B829B1
:10036000013A0319BC29C029BE10861BBE14C0293E
:10037000BE10061BBE14C029BE10861ABE14C029AA
:100380002C18DD292F08013A0319CD29033A031946
:10039000D229013A0319D729DC290515831605113D
:1003A0008312DC290514831605108312DC29051736
:1003B000831605138312DC29F7292F08013A031944
:1003C000E829033A0319ED29013A0319F229F7291B
:1003D0008515831685118312F729851483168510D8
:1003E0008312F7298517831685138312F7290A309C
:1003F000BF0028202E08013A0319052A033A0319E1
:10040000092A013A03190D2A112A3E10861B3E14AF
:10041000112A3E10061B3E14112A3E10861A3E1465
:10042000112A3E18172ABE1C172A0130BD003D08AC
:10043000F8007808BC0000342030CD00C901CA01A2
:10044000CB01CC014408FA004308F9004208F80047
:100450004108F7000310771C3B2A4508C9074608E6
:100460000318460FCA0747080318470FCB07480869
:100470000318480FCC07CC0CCB0CCA0CC90CFA0CD7
:10048000F90CF80CF70CCD0B2A2A00343D08C400F7
:100490003C08C3003B08C2003A08C1002B08C80052
:1004A0002A08C7002908C6002808C5001C227708AA
:1004B0002407A0002508A10078080318780FA107D9
:1004C0002608A20079080318790FA2072708A300BD
:1004D0007A0803187A0FA307292FC401C301C201A8
:1004E0003808C1002708C8002608C7002508C6002C
:1004F0002408C5001C2277082007A8002108A900AD
:1005000078080318780FA9072208AA0079080318A9
:10051000790FAA072308AB007A0803187A0FAB07F4
:100520002308C4002208C3002108C2002008C1001B
:100530002B08C8002A08C7002908C6002808C500DB
:100540001C227A08BC007908BB007808BA0077083A
:10055000B900C001FF30BF00BE01BD01F701F801C5
:10056000F9013C08FA00F708031DBF2AF808031D2B
:10057000BF2AF908031DBF2AFA080319C42AC001BB
:10058000BF01BE01FF30BD00BD08031DD02ABE085B
:10059000031DD02ABF08031DD02AC0080319002B51
:1005A00020082802C1002908C2002108031C210FCD
:1005B000C2022A08C3002208031C220FC3022B0810
:1005C000C4002308031C230FC40224084107A80009
:1005D0004208A90025080318250FA9074308AA0007
:1005E00026080318260FAA074408AB00270803189B
:1005F000270FAB070310C00CBF0CBE0CBD0CC42AE8
:100600003A2FC401C301C2013808C1002308C80041
:100610002208C7002108C6002008C5001C22770850
:100620002807A4002908A50078080318780FA50753
:100630002A08A60079080318790FA6072B08A70037
:100640007A0803187A0FA7072708C4002608C300F2
:100650002508C2002408C1002B08C8002A08C700CA
:100660002908C6002808C500F701F801F901FA01B8
:10067000C901CA01CB01CC0148084704460445041E
:100680000319722B2030CD000310C10DC20DC30D14
:10069000C40DC90DCA0DCB0DCC0D48084C02031D6D
:1006A0005B2B47084B02031D5B2B46084A02031DC8
:1006B0005B2B45084902031C6C2B4508C902460800
:1006C000031C460FCA024708031C470FCB02480809
:1006D000031C480FCC020314F70DF80DF90DFA0DA9
:1006E000CD0B442B4930840083137A08BC00790871
:1006F000BB007808BA007708B900B908031D892B38
:10070000BA08031D892BBB08031D892BBC080319DC
:10071000AF2B2308C4002208C3002108C200200810
:10072000C1002708C8002608C7002508C6002408FD
:10073000C5001C2277082805A00078082905A1001B
:1007400079082A05A2007A082B05A300FF30B90713
:10075000031CBA07031CBB07031CBC077D2BA008A6
:10076000031DDD2B210FDD2BA208031DDD2B230F25
:10077000DD2BA00DA10DA20DA30DA00DA10DA20DAD
:10078000A30DA00DA10DA20DA30DF830A005F7013A
:10079000F801F90123088039FA00F708031DD92B65
:1007A000F808031DD92BF908031DD92BFA080319E2
:1007B000DD2BA411A51026112710632FB9080319EA
:1007C000052C380BEB2B06120330BA00042006165A
:1007D0000330BA0004203808023C031DF72B8611B1
:1007E0000330BA00042086150330BA00042038080C
:1007F000033C031D032C05120330BA000420051628
:100800000330BA000420B903DE2B0034B5011C20EC
:100810003108703C031D782C3408013A0319172C59
:10082000033A03191C2C013A0319212C262C851597
:10083000831685118312262C851483168510831246
:10084000262C8517831685138312262C3408013A2B
:100850000319312C033A0319352C013A0319392CA9
:100860003D2C3810861B38143D2C3810061B3814CC
:100870003D2C3810861A38143D2C3308013A0319E0
:10088000482C033A03194D2C013A0319522C572CCA
:100890008613831686138312572C061383160613AA
:1008A0008312572C8612831686128312572C340813
:1008B000013A0319622C033A0319662C013A031911
:1008C0006A2C6E2CB810861BB8146E2CB810061B40
:1008D000B8146E2CB810861AB8146E2C381C752CEF
:1008E000B818752C0130F800E82C0030F800E82C1E
:1008F00031086E3C031DE82C3308013A0319872C9C
:10090000033A03198C2C013A0319912C962C851566
:10091000831685118312962C8514831685108312F5
:10092000962C8517831685138312962C3308013A6B
:100930000319A12C033A0319A52C013A0319A92C78
:10094000AD2C3810861B3814AD2C3810061B38140B
:10095000AD2C3810861A3814AD2C3408013A03191E
:10096000B82C033A0319BD2C013A0319C22CC72C29
:100970008613831686138312C72C06138316061359
:100980008312C72C8612831686128312C72C330853
:10099000013A0319D22C033A0319D62C013A031950
:1009A000DA2CDE2CB810861BB814DE2CB810061B0F
:1009B000B814DE2CB810861AB814DE2C381CE52CBE
:1009C000B818E52C0130F800E82C0030F800E82CCD
:1009D0007C2F2B08C4002A08C3002908C20028085D
:1009E000C100C801C701C6010330C5001C227A0836
:1009F000BC007908BB007808BA007708B900B808CD
:100A00000319362D2308C4002208C3002108C200A0
:100A10002008C1002B08C8002A08C7002908C60002
:100A20002808C5001C227A08AB007908AA007808BB
:100A3000A9007708A800F701F8012A08F039F900A1
:100A4000FA01F708031D2D2DF808031D2D2DF908B7
:100A5000031D2D2DFA080319342D2908A8002A0892
:100A6000A9002B08AA00AB01B803FF2C852FF701C2
:100A7000F8013B0803103C18F707F70CF80CBC18FA
:100A8000F707F70CF80C3C19F707F70CF80CBC1932
:100A9000F707F70CF80C3C1AF707F70CF80CBC1A20
:100AA000F707F70CF80C3C1BF707F70CF80CBC1B0E
:100AB000F707F70CF80C00340330B900B808031935
:100AC000782D2F083007BA003908BB002E08BC006B
:100AD00037257808B9002E082F02031D762D2E0821
:100AE000BB003008BC0037257808B900B8035E2D7C
:100AF000912F840183131F30830583168E150730D1
:100B000083129F002C10AD010130AE000230AF0007
:100B10000330B0000730B700061686150516061418
:100B20000615861483160612861105120610061184
:100B30008610831206120230BA0004208611023099
:100B4000BA00042005120230BA0004200610023058
:100B5000BA00042006110230BA00042086100230C8
:100B6000BA0004200612861105120610061186101E
:100B7000B601B608031D332F2C10B608031DCB2D6C
:100B80007030B8000130B9000230BA000330BB0049
:100B90003A207808B600B70AB608031DDA2D70307F
:100BA000B8000130B9000330BA000230BB003A206F
:100BB0007808B600B70AB608031DE92D7030B800F2
:100BC0000230B9000130BA000330BB003A20780887
:100BD000B600B70AB608031DF82D7030B800023011
:100BE000B9000330BA000130BB003A207808B600E3
:100BF000B70AB608031D072E7030B8000330B900DD
:100C00000130BA000230BB003A207808B600B70ABB
:100C1000B608031D162E7030B8000330B90002303C
:100C2000BA000130BB003A207808B600B70AB6080F
:100C3000031D252E6E30B8000130B9000230BA0015
:100C40000330BB003A207808B600B70AB608031D87
:100C5000342E6E30B8000130B9000330BA000230D3
:100C6000BB003A207808B600B70AB608031D432E29
:100C70006E30B8000230B9000130BA000330BB005A
:100C80003A207808B600B70AB608031D522E6E3017
:100C9000B8000230B9000330BA000130BB003A207E
:100CA0007808B600B70AB608031D612E6E30B8008A
:100CB0000330B9000130BA000230BB003A20780896
:100CC000B600B70AB608031D702E6E30B8000330A8
:100CD000B9000230BA000130BB003A207808B600F3
:100CE000B70A2C14B608031D802E7030B8000130EE
:100CF000B9000230BA000330BB003A207808B600D1
:100D0000B608031D8E2E7030B8000130B9000330D4
:100D1000BA000230BB003A207808B600B608031DBE
:100D20009C2E7030B8000230B9000130BA00033098
:100D3000BB003A207808B600B608031DAA2E703012
:100D4000B8000230B9000330BA000130BB003A20CD
:100D50007808B600B608031DB82E7030B80003300E
:100D6000B9000130BA000230BB003A207808B60062
:100D7000B608031DC62E7030B8000330B90002302B
:100D8000BA000130BB003A207808B600B608031D4F
:100D9000D42E6E30B8000130B9000230BA000330F2
:100DA000BB003A207808B600B608031DE22E6E306C
:100DB000B8000130B9000330BA000230BB003A205D
:100DC0007808B600B608031DF02E6E30B800023069
:100DD000B9000130BA000330BB003A207808B600F1
:100DE000B608031DFE2E6E30B8000230B900033085
:100DF000BA000130BB003A207808B600B608031DDF
:100E00000C2F6E30B8000330B9000130BA00023048
:100E1000BB003A207808B600B608031D1A2F6E30C2
:100E2000B8000330B9000230BA000130BB003A20EC
:100E30007808B6002C103708383C031D292F3008DD
:100E40002E072F07B900BD01BC01BB013908BA004C
:100E5000462AB608031D322F0616861505160614F7
:100E600006158614B92D2E08033C031D3A2F2E08B3
:100E7000B8006D2A3108703C031D402F061006157E
:100E800031086E3C031D462F06110614330B492F03
:100E900006123308023C031986113308033C031978
:100EA0000512340B542F06163408023C031986151C
:100EB0003408033C031905162F08033C031D632F58
:100EC0002F08B800012B320B692F0130B800B90090
:100ED000DE233208023C031D722F0230B8000130BD
:100EE000B900DE233208033C031D7B2F0330B8001A
:100EF0000130B900DE23062C7808B6003008033C28
:100F0000031D852F3008B800E92C360B892F861079
:100F10008A2F86143008053C031D912F3008B80035
:060F20005C2DB82D6300FA
:02400E00343F3D
:00000001FF
;PIC16F628A
