:1000000000308A007F2D0000BA0803191B28033036
:10001000BC00E830BB003B083C0403191928213020
:10002000F700F70B112864003B080319BC03BB035E
:100030000B28BA0304280034831686170617861681
:1000400085158514851705150514051783120034C9
:10005000BF08031939280A30C000C008031937281F
:100060002130F700F70B32286400C0032D28BF03AE
:1000700028280034BC013808B1003908B2003A0819
:10008000B3003B08B4003808AD003908AF003A08A7
:10009000AE003B08B0001C202D08703C031D6A28F0
:1000A0003008013A03195B28033A03196028013A22
:1000B000031965286A2886138316861383126A2813
:1000C00006138316061383126A2886128316861275
:1000D00083126A282D086E3C031D88283008013AD7
:1000E00003197928033A03197E28013A0319832852
:1000F0008828861783168613831288280617831686
:10010000061383128828861683168612831288287F
:100110002D08703C031DA6282E08013A03199728C4
:10012000033A03199C28013A0319A128A62885152A
:10013000831685118312A6288514831685108312D1
:10014000A6288517831685138312A6282D086E3CD2
:10015000031DC4282E08013A0319B528033A0319D0
:10016000BA28013A0319BF28C428851183168511BE
:100170008312C4288510831685108312C428851322
:10018000831685138312C428BD012D08703C031DFE
:100190006B292C18E6282F08013A0319D628033AB0
:1001A0000319DB28013A0319E028E5280515831611
:1001B00005118312E5280514831605108312E5281E
:1001C0000517831605138312E52800292F08013A25
:1001D0000319F128033A0319F628013A0319FB28F9
:1001E000002985158316851183120029851483162D
:1001F0008510831200298517831685138312002921
:100200000A30BF0028202E08013A03190E29033AAC
:1002100003191229013A031916291A293E10861BBF
:100220003E141A293E10061B3E141A293E10861A47
:100230003E141A292C1837292F08013A03192729A7
:10024000033A03192C29013A0319312936290511DA
:1002500083160511831236290510831605108312A3
:1002600036290513831605138312362951292F08C1
:10027000013A03194229033A03194729013A03199C
:100280004C29512985118316851183125129851016
:1002900083168510831251298513831685138312C3
:1002A00051290A30BF0028202E08013A03195F297E
:1002B000033A03196329013A031967296B29BE1010
:1002C000861BBE146B29BE10061BBE146B29BE1004
:1002D000861ABE146B292D086E3C031D112A2C189A
:1002E0008C292F08013A03197C29033A0319812923
:1002F000013A031986298B290511831605118312EA
:100300008B2905108316051083128B29051383167C
:10031000051383128B29A6292F08013A031997295F
:10032000033A03199C29013A0319A129A629851129
:10033000831685118312A6298510831685108312D2
:10034000A6298513831685138312A6290A30BF00B8
:1003500028202E08013A0319B429033A0319B829B1
:10036000013A0319BC29C029BE10861BBE14C0293E
:10037000BE10061BBE14C029BE10861ABE14C029AA
:100380002C18DD292F08013A0319CD29033A031946
:10039000D229013A0319D729DC290515831605113D
:1003A0008312DC290514831605108312DC29051736
:1003B000831605138312DC29F7292F08013A031944
:1003C000E829033A0319ED29013A0319F229F7291B
:1003D0008515831685118312F729851483168510D8
:1003E0008312F7298517831685138312F7290A309C
:1003F000BF0028202E08013A0319052A033A0319E1
:10040000092A013A03190D2A112A3E10861B3E14AF
:10041000112A3E10061B3E14112A3E10861A3E1465
:10042000112A3E18172ABE1C172A0130BD003D08AC
:10043000F8007808BC0000342030CD00C901CA01A2
:10044000CB01CC014408FA004308F9004208F80047
:100450004108F7000310771C3B2A4508C9074608E6
:100460000318460FCA0747080318470FCB07480869
:100470000318480FCC07CC0CCB0CCA0CC90CFA0CD7
:10048000F90CF80CF70CCD0B2A2A00343D08C400F7
:100490003C08C3003B08C2003A08C1002B08C80052
:1004A0002A08C7002908C6002808C5001C227708AA
:1004B0002407A0002508A10078080318780FA107D9
:1004C0002608A20079080318790FA2072708A300BD
:1004D0007A0803187A0FA3078A112F2FC401C301CA
:1004E000C2013808C1002708C8002608C70025082F
:1004F000C6002408C5001C2277082007A800210890
:10050000A90078080318780FA9072208AA0079081B
:100510000318790FAA072308AB007A0803187A0F8B
:10052000AB072308C4002208C3002108C20020082A
:10053000C1002B08C8002A08C7002908C6002808DF
:10054000C5001C227A08BC007908BB007808BA00F4
:100550007708B900C001FF30BF00BE01BD01F7013F
:10056000F801F9013C08FA00F708031DC02AF80851
:10057000031DC02AF908031DC02AFA080319C52A59
:10058000C001BF01BE01FF30BD00BD08031DD12A5F
:10059000BE08031DD12ABF08031DD12AC0080319B4
:1005A000012B20082802C1002908C2002108031CD1
:1005B000210FC2022A08C3002208031C220FC30213
:1005C0002B08C4002308031C230FC402240841077E
:1005D000A8004208A90025080318250FA907430809
:1005E000AA0026080318260FAA074408AB0027080C
:1005F0000318270FAB070310C00CBF0CBE0CBD0CBB
:10060000C52A8A11402FC401C301C2013808C100A4
:100610002308C8002208C7002108C6002008C5001A
:100620001C2277082807A4002908A50078080318C9
:10063000780FA5072A08A60079080318790FA607DE
:100640002B08A7007A0803187A0FA7072708C40009
:100650002608C3002508C2002408C1002B08C800D2
:100660002A08C7002908C6002808C500F701F801B4
:10067000F901FA01C901CA01CB01CC0148084704BC
:10068000460445040319742B2030CD000310C10D1E
:10069000C20DC30DC40DC90DCA0DCB0DCC0D48083C
:1006A0004C02031D5D2B47084B02031D5D2B4608C2
:1006B0004A02031D5D2B45084902031C6E2B4508A9
:1006C000C9024608031C460FCA024708031C470F0D
:1006D000CB024808031C480FCC020314F70DF80D99
:1006E000F90DFA0DCD0B462B4930840083137A089F
:1006F000BC007908BB007808BA007708B900B908CF
:10070000031D8B2BBA08031D8B2BBB08031D8B2BE2
:10071000BC080319B12B2308C4002208C300210818
:10072000C2002008C1002708C8002608C700250805
:10073000C6002408C5001C2277082805A0007808F8
:100740002905A10079082A05A2007A082B05A30033
:10075000FF30B907031CBA07031CBB07031CBC0707
:100760007F2BA008031DDF2B210FDF2BA208031D09
:10077000DF2B230FDF2BA00DA10DA20DA30DA00DCC
:10078000A10DA20DA30DA00DA10DA20DA30DF8307A
:10079000A005F701F801F90123088039FA00F708EC
:1007A000031DDB2BF808031DDB2BF908031DDB2BD6
:1007B000FA080319DF2BA411A510261127108A119E
:1007C000692FB9080319082C380BEE2B06120330D9
:1007D000BA00042006160330BA0004203808023C90
:1007E000031DFA2B86110330BA000420861503304E
:1007F000BA0004203808033C031D062C0512033000
:10080000BA00042005160330BA000420B903E12B16
:100810000034B5011C203108703C031D7B2C3408CA
:10082000013A03191A2C033A03191F2C013A031930
:10083000242C292C8515831685118312292C8514C7
:10084000831685108312292C85178316851383122E
:10085000292C3408013A0319342C033A0319382C93
:10086000013A03193C2C402C3810861B3814402CBC
:100870003810061B3814402C3810861A3814402CB7
:100880003308013A03194B2C033A0319502C013A4F
:100890000319552C5A2C86138316861383125A2C4F
:1008A00006138316061383125A2C86128316861299
:1008B00083125A2C3408013A0319652C033A0319A0
:1008C000692C013A03196D2C712CB810861BB814D1
:1008D000712CB810061BB814712CB810861AB814F5
:1008E000712C381C782CB818782C0130F800EB2CBF
:1008F0000030F800EB2C31086E3C031DEB2C330864
:10090000013A03198A2C033A03198F2C013A03196F
:10091000942C992C8515831685118312992C851496
:10092000831685108312992C8517831685138312DD
:10093000992C3308013A0319A42C033A0319A82C63
:10094000013A0319AC2CB02C3810861B3814B02C8B
:100950003810061B3814B02C3810861A3814B02CF6
:100960003408013A0319BB2C033A0319C02C013A8D
:100970000319C52CCA2C8613831686138312CA2C1E
:100980000613831606138312CA2C86128316861248
:100990008312CA2C3308013A0319D52C033A0319E0
:1009A000D92C013A0319DD2CE12CB810861BB814A0
:1009B000E12CB810061BB814E12CB810861AB81434
:1009C000E12C381CE82CB818E82C0130F800EB2C8E
:1009D0000030F800EB2C8A11822F2B08C4002A0863
:1009E000C3002908C2002808C100C801C701C60108
:1009F0000330C5001C227A08BC007908BB007808C7
:100A0000BA007708B900B80803193A2D2308C400C2
:100A10002208C3002108C2002008C1002B08C8001A
:100A20002A08C7002908C6002808C5001C227A0821
:100A3000AB007908AA007808A9007708A800F70198
:100A4000F8012A08F039F900FA01F708031D312DE1
:100A5000F808031D312DF908031D312DFA0803197B
:100A6000382D2908A8002A08A9002B08AA00AB01E4
:100A7000B803032D8A118B2FF701F8013B080310EF
:100A80003C18F707F70CF80CBC18F707F70CF80C34
:100A90003C19F707F70CF80CBC19F707F70CF80C22
:100AA0003C1AF707F70CF80CBC1AF707F70CF80C10
:100AB0003C1BF707F70CF80CBC1BF707F70CF80CFE
:100AC00000340330B900B80803197D2D2F08300712
:100AD000BA003908BB002E08BC003C257808B900D4
:100AE0002E082F02031D7B2D2E08BB003008BC00F2
:100AF0003C257808B900B803632D8A11972F84012B
:100B000083131F30830583168E15073083129F00D1
:100B10002C10AD010130AE000230AF000330B00048
:100B20000730B70006168615051606140615861436
:100B300083160612861105120610061186108312FE
:100B400006120230BA00042086110230BA000420D6
:100B500005120230BA00042006100230BA00042048
:100B600006110230BA00042086100230BA000420B8
:100B7000061286110512061006118610B601B60877
:100B8000031D392F2C10B608031DD12D7030B8006D
:100B90000130B9000230BA000330BB003A207808B7
:100BA000B600B70AB608031DE02D7030B80001305A
:100BB000B9000330BA000230BB003A207808B60012
:100BC000B70AB608031DEF2D7030B8000230B90027
:100BD0000130BA000330BB003A207808B600B70AEB
:100BE000B608031DFE2D7030B8000230B900033086
:100BF000BA000130BB003A207808B600B70AB60840
:100C0000031D0D2E7030B8000330B9000130BA005A
:100C10000230BB003A207808B600B70AB608031DB8
:100C20001C2E7030B8000330B9000230BA00013019
:100C3000BB003A207808B600B70AB608031D2B2E71
:100C40006E30B8000130B9000230BA000330BB008A
:100C50003A207808B600B70AB608031D3A2E6E305F
:100C6000B8000130B9000330BA000230BB003A20AE
:100C70007808B600B70AB608031D492E6E30B800D2
:100C80000230B9000130BA000330BB003A207808C6
:100C9000B600B70AB608031D582E6E30B8000230F1
:100CA000B9000330BA000130BB003A207808B60022
:100CB000B70AB608031D672E6E30B8000330B900BE
:100CC0000130BA000230BB003A207808B600B70AFB
:100CD000B608031D762E6E30B8000330B90002301E
:100CE000BA000130BB003A207808B600B70A2C14CD
:100CF000B608031D862E7030B8000130B9000230EE
:100D0000BA000330BB003A207808B600B608031DCD
:100D1000942E7030B8000130B9000330BA000230B0
:100D2000BB003A207808B600B608031DA22E70302A
:100D3000B8000230B9000130BA000330BB003A20DD
:100D40007808B600B608031DB02E7030B800023027
:100D5000B9000330BA000130BB003A207808B60071
:100D6000B608031DBE2E7030B8000330B900013044
:100D7000BA000230BB003A207808B600B608031D5E
:100D8000CC2E7030B8000330B9000230BA00013008
:100D9000BB003A207808B600B608031DDA2E6E3084
:100DA000B8000130B9000230BA000330BB003A206D
:100DB0007808B600B608031DE82E6E30B800013082
:100DC000B9000330BA000230BB003A207808B60000
:100DD000B608031DF62E6E30B8000230B90001309F
:100DE000BA000330BB003A207808B600B608031DED
:100DF000042F6E30B8000230B9000330BA00013061
:100E0000BB003A207808B600B608031D122F6E30DA
:100E1000B8000330B9000130BA000230BB003A20FC
:100E20007808B600B608031D202F6E30B8000330D6
:100E3000B9000230BA000130BB003A207808B60091
:100E40002C103708383C031D2F2F30082E072F0792
:100E5000B900BD01BC01BB013908BA00462AB60879
:100E6000031D382F0616861505160614061586145A
:100E7000BF2D2E08033C031D402F2E08B8006E2AFC
:100E80003108703C031D462F0610061531086E3CD4
:100E9000031D4C2F06110614330B4F2F0612330877
:100EA000023C031986113308033C03190512340B65
:100EB0005A2F06163408023C031986153408033CE1
:100EC000031905162F08033C031D692F2F08B800CE
:100ED000032B320B6F2F0130B800B900E123320829
:100EE000023C031D782F0230B8000130B900E12325
:100EF0003208033C031D812F0330B8000130B900D4
:100F0000E123092C7808B6003008033C031D8B2F21
:100F10003008B800ED2C360B8F2F8610902F8614DA
:100F20003008053C031D972F3008B800612DBE2DF9
:020F300063005C
:02400E00343F3D
:00000001FF
;PIC16F648A
