:1000000000308A00C62D0000BB0803191B280330EE
:10001000BD00E830BC003C083D040319192821301C
:10002000F700F70B112864003C080319BD03BC035B
:100030000B28BB0304280034831686170617861680
:1000400085158514851705150514051783120034C9
:10005000BF08031939280A30C000C008031937281F
:100060002130F700F70B32286400C0032D28BF03AE
:1000700028280034BC013808B1003908B2003A0819
:10008000B3003B08B4003808AD003908AF003A08A7
:10009000AE003B08B0001C202D08703C031D6A28F0
:1000A0003008013A03195B28033A03196028013A22
:1000B000031965286A2886138316861383126A2813
:1000C00006138316061383126A2886128316861275
:1000D00083126A282D086E3C031D88283008013AD7
:1000E00003197928033A03197E28013A0319832852
:1000F0008828861783168613831288280617831686
:10010000061383128828861683168612831288287F
:100110002D08703C031DA6282E08013A03199728C4
:10012000033A03199C28013A0319A128A62885152A
:10013000831685118312A6288514831685108312D1
:10014000A6288517831685138312A6282D086E3CD2
:10015000031DC4282E08013A0319B528033A0319D0
:10016000BA28013A0319BF28C428851183168511BE
:100170008312C4288510831685108312C428851322
:10018000831685138312C428BD012D08703C031DFE
:100190006B292C18E6282F08013A0319D628033AB0
:1001A0000319DB28013A0319E028E5280515831611
:1001B00005118312E5280514831605108312E5281E
:1001C0000517831605138312E52800292F08013A25
:1001D0000319F128033A0319F628013A0319FB28F9
:1001E000002985158316851183120029851483162D
:1001F0008510831200298517831685138312002921
:100200000A30BF0028202E08013A03190E29033AAC
:1002100003191229013A031916291A293E10861BBF
:100220003E141A293E10061B3E141A293E10861A47
:100230003E141A292C1837292F08013A03192729A7
:10024000033A03192C29013A0319312936290511DA
:1002500083160511831236290510831605108312A3
:1002600036290513831605138312362951292F08C1
:10027000013A03194229033A03194729013A03199C
:100280004C29512985118316851183125129851016
:1002900083168510831251298513831685138312C3
:1002A00051290A30BF0028202E08013A03195F297E
:1002B000033A03196329013A031967296B29BE1010
:1002C000861BBE146B29BE10061BBE146B29BE1004
:1002D000861ABE146B292D086E3C031D112A2C189A
:1002E0008C292F08013A03197C29033A0319812923
:1002F000013A031986298B290511831605118312EA
:100300008B2905108316051083128B29051383167C
:10031000051383128B29A6292F08013A031997295F
:10032000033A03199C29013A0319A129A629851129
:10033000831685118312A6298510831685108312D2
:10034000A6298513831685138312A6290A30BF00B8
:1003500028202E08013A0319B429033A0319B829B1
:10036000013A0319BC29C029BE10861BBE14C0293E
:10037000BE10061BBE14C029BE10861ABE14C029AA
:100380002C18DD292F08013A0319CD29033A031946
:10039000D229013A0319D729DC290515831605113D
:1003A0008312DC290514831605108312DC29051736
:1003B000831605138312DC29F7292F08013A031944
:1003C000E829033A0319ED29013A0319F229F7291B
:1003D0008515831685118312F729851483168510D8
:1003E0008312F7298517831685138312F7290A309C
:1003F000BF0028202E08013A0319052A033A0319E1
:10040000092A013A03190D2A112A3E10861B3E14AF
:10041000112A3E10061B3E14112A3E10861A3E1465
:10042000112A3E18172ABE1C172A0130BD003D08AC
:10043000F8007808BC0000342030CD00C901CA01A2
:10044000CB01CC014408FA004308F9004208F80047
:100450004108F7000310771C3B2A4508C9074608E6
:100460000318460FCA0747080318470FCB07480869
:100470000318480FCC07CC0CCB0CCA0CC90CFA0CD7
:10048000F90CF80CF70CCD0B2A2A00343D08C400F7
:100490003C08C3003B08C2003A08C1002B08C80052
:1004A0002A08C7002908C6002808C5001C227708AA
:1004B0002407A0002508A10078080318780FA107D9
:1004C0002608A20079080318790FA2072708A300BD
:1004D0007A0803187A0FA3078A11762FC401C30183
:1004E000C2013808C1002708C8002608C70025082F
:1004F000C6002408C5001C2277082007A800210890
:10050000A90078080318780FA9072208AA0079081B
:100510000318790FAA072308AB007A0803187A0F8B
:10052000AB072308C4002208C3002108C20020082A
:10053000C1002B08C8002A08C7002908C6002808DF
:10054000C5001C227A08BC007908BB007808BA00F4
:100550007708B900C001FF30BF00BE01BD01F7013F
:10056000F801F9013C08FA00F708031DC02AF80851
:10057000031DC02AF908031DC02AFA080319C52A59
:10058000C001BF01BE01FF30BD00BD08031DD12A5F
:10059000BE08031DD12ABF08031DD12AC0080319B4
:1005A000012B20082802C1002908C2002108031CD1
:1005B000210FC2022A08C3002208031C220FC30213
:1005C0002B08C4002308031C230FC402240841077E
:1005D000A8004208A90025080318250FA907430809
:1005E000AA0026080318260FAA074408AB0027080C
:1005F0000318270FAB070310C00CBF0CBE0CBD0CBB
:10060000C52A8A11872FB901B5011C203408013A87
:100610000319112B033A0319162B013A03191B2B4B
:10062000202B0515831605118312202B0514831624
:1006300005108312202B0517831605138312202B18
:100640003308013A03192B2B033A03192F2B013AD4
:100650000319332B372B3810861B3814372B3810DF
:10066000061B3814372B3810861A3814372B3818D5
:1006700039143408013A0319442B033A0319492B5E
:10068000013A03194E2B532B0511831605118312C2
:10069000532B0510831605108312532B0513831655
:1006A00005138312532B3308013A03195E2B033AC7
:1006B0000319622B013A0319662B6A2B3810861B2B
:1006C00038146A2B3810061B38146A2B3810861A17
:1006D00038146A2B381CB9143408013A0319772BE3
:1006E000033A03197C2B013A0319812B862B05153C
:1006F000831605118312862B0514831605108312A9
:10070000862B0517831605138312862B3308013AAF
:100710000319912B033A0319952B013A0319992BCD
:100720009D2B3810861B38149D2B3810061B38144F
:100730009D2B3810861A38149D2B3818391534081B
:10074000013A0319AA2B033A0319AF2B013A0319F3
:10075000B42BB92B0511831605118312B92B051083
:10076000831605108312B92B051383160513831204
:10077000B92B3308013A0319C42B033A0319C82BC8
:10078000013A0319CC2BD02B3810861B3814D02BF0
:100790003810061B3814D02B3810861A3814D02B7A
:1007A000381CB9151C203308013A0319DE2B033A13
:1007B0000319E32B013A0319E82BED2B05158316DA
:1007C00005118312ED2B0514831605108312ED2BF2
:1007D0000517831605138312ED2B3408013A03190C
:1007E000F82B033A0319FC2B013A0319002C042CB3
:1007F0003810861B3814042C3810061B3814042CAF
:100800003810861A3814042C381839163308013A6F
:100810000319112C033A0319162C013A03191B2C46
:10082000202C0511831605118312202C0510831628
:1008300005108312202C0513831605138312202C18
:100840003408013A03192B2C033A03192F2C013ACF
:100850000319332C372C3810861B3814372C3810DA
:10086000061B3814372C3810861A3814372C381CCD
:10087000B9163308013A0319442C033A0319492CD9
:10088000013A03194E2C532C0515831605118312BA
:10089000532C0514831605108312532C0517831649
:1008A00005138312532C3408013A03195E2C033AC2
:1008B0000319622C013A0319662C6A2C3810861B26
:1008C00038146A2C3810061B38146A2C3810861A13
:1008D00038146A2C381839173308013A0319772C61
:1008E000033A03197C2C013A0319812C862C05113B
:1008F000831605118312862C0510831605108312AA
:10090000862C0513831605138312862C3408013AAE
:100910000319912C033A0319952C013A0319992CC8
:100920009D2C3810861B38149D2C3810061B38144B
:100930009D2C3810861A38149D2C381CB917390F85
:10094000A42C0130F800A62C0030F8008A11AA2F40
:10095000B9080319E12C380BBB2C0612BA08031D89
:1009600086100330BB0004200616BA08031D861447
:100970000330BB0004203808023C031DCD2C861137
:10098000BA08031D86100330BB0004208615BA0880
:10099000031D86140330BB0004203808033C031DEC
:1009A000DF2C0512BA08031D86100330BB0004209B
:1009B0000516BA08031D86140330BB000420B903D2
:1009C000A82C0034B5011C203108703C031D542DA7
:1009D0003408013A0319F32C033A0319F82C013AAD
:1009E0000319FD2C022D8515831685118312022D06
:1009F0008514831685108312022D8517831685139F
:100A00008312022D3408013A03190D2D033A0319FC
:100A1000112D013A0319152D192D3810861B381484
:100A2000192D3810061B3814192D3810861A381451
:100A3000192D3308013A0319242D033A0319292DDE
:100A4000013A03192E2D332D861383168613831234
:100A5000332D0613831606138312332D8612831645
:100A600086128312332D3408013A03193E2D033ABE
:100A70000319422D013A0319462D4A2DB810861B41
:100A8000B8144A2DB810061BB8144A2DB810861A8F
:100A9000B8144A2D381C512DB818512D0130F800CA
:100AA000C42D0030F800C42D31086E3C031DC42D48
:100AB0003308013A0319632D033A0319682D013AEB
:100AC00003196D2D722D8515831685118312722DD4
:100AD0008514831685108312722D8517831685134E
:100AE0008312722D3308013A03197D2D033A03193D
:100AF000812D013A0319852D892D3810861B381454
:100B0000892D3810061B3814892D3810861A381490
:100B1000892D3408013A0319942D033A0319992DAC
:100B2000013A03199E2DA32D861383168613831273
:100B3000A32D0613831606138312A32D8612831684
:100B400086128312A32D3308013A0319AE2D033AFE
:100B50000319B22D013A0319B62DBA2DB810861B10
:100B6000B814BA2DB810061BB814BA2DB810861ACE
:100B7000B814BA2D381CC12DB818C12D0130F80099
:100B8000C42D0030F800C42D8A11CE2F84018313A8
:100B90001F30830583168E15073083129F002C109B
:100BA000AD010130AE000230AF000330B0000730BD
:100BB000B700061686150516061406158614831644
:100BC00006128611051206100611861083120612EF
:100BD0000230BB00042086110230BB000420051245
:100BE0000230BB00042006100230BB0004200611B6
:100BF0000230BB00042086100230BB000420061225
:100C000086110512061006118610B601B608031DDE
:100C1000802F2C10B608031D182E7030B80001303C
:100C2000B9000230BA000330BB003A207808B600A1
:100C3000B70AB608031D272E7030B8000130B9007E
:100C40000330BA000230BB003A207808B600B70A79
:100C5000B608031D362E7030B8000230B9000130DE
:100C6000BA000330BB003A207808B600B70AB608CD
:100C7000031D452E7030B8000230B9000330BA00B1
:100C80000130BB003A207808B600B70AB608031D49
:100C9000542E7030B8000330B9000130BA00023071
:100CA000BB003A207808B600B70AB608031D632EC9
:100CB0007030B8000330B9000230BA000130BB0018
:100CC0003A207808B600B70AB608031D722E6E30B7
:100CD000B8000130B9000230BA000330BB003A203E
:100CE0007808B600B70AB608031D812E6E30B8002A
:100CF0000130B9000330BA000230BB003A20780856
:100D0000B600B70AB608031D902E6E30B800023048
:100D1000B9000130BA000330BB003A207808B600B1
:100D2000B70AB608031D9F2E6E30B8000230B90016
:100D30000330BA000130BB003A207808B600B70A89
:100D4000B608031DAE2E6E30B8000330B900013076
:100D5000BA000230BB003A207808B600B70AB608DD
:100D6000031DBD2E6E30B8000330B9000230BA004A
:100D70000130BB003A207808B600B70A2C14B60838
:100D8000031DCD2E7030B8000130B9000230BA001A
:100D90000330BB003A207808B600B608031DDB2EEE
:100DA0007030B8000130B9000330BA000230BB0027
:100DB0003A207808B600B608031DE92E7030B80056
:100DC0000230B9000130BA000330BB003A20780885
:100DD000B600B608031DF72E7030B8000230B90017
:100DE0000330BA000130BB003A207808B600B608DC
:100DF000031D052F7030B8000330B9000130BA0070
:100E00000230BB003A207808B600B608031D132F45
:100E10007030B8000330B9000230BA000130BB00B6
:100E20003A207808B600B608031D212F6E30B800AE
:100E30000130B9000230BA000330BB003A20780814
:100E4000B600B608031D2F2F6E30B8000130B90070
:100E50000330BA000230BB003A207808B600B6086A
:100E6000031D3D2F6E30B8000230B9000130BA00CA
:100E70000330BB003A207808B600B608031D4B2F9C
:100E80006E30B8000230B9000330BA000130BB0048
:100E90003A207808B600B608031D592F6E30B80006
:100EA0000330B9000130BA000230BB003A207808A4
:100EB000B600B608031D672F6E30B8000330B900C6
:100EC0000230BA000130BB003A207808B6002C107E
:100ED0003708383C031D762F30082E072F07B9003E
:100EE000BD01BC01BB013908BA00462AB608031D82
:100EF0007F2F061686150516061406158614062E6F
:100F00002E08033C031D872F2E08B8006E2A3108D7
:100F1000703C031D8D2F0610061531086E3C031D15
:100F2000932F06110614330B962F06123308023C3A
:100F3000031986113308033C03190512340BA12F42
:100F400006163408023C031986153408033C0319BD
:100F50000516032B7808B600320BB42F0130B80009
:100F6000B9003608BA00A8243208023C031DBF2F7E
:100F70000230B8000130B9003608BA00A82432089F
:100F8000033C031DCA2F0330B8000130B9003608F6
:100F9000BA00A824B608031DD52FE22C7808B600A5
:0E0FA000360BD42F8610D52F8614052E630035
:02400E00343F3D
:00000001FF
;PIC16F648A
