:1000000000308A00C22D0000BB0803191B280330F2
:10001000BD00E830BC003C083D040319192821301C
:10002000F700F70B112864003C080319BD03BC035B
:100030000B28BB0304280034831686170617861680
:1000400085158514851705150514051783120034C9
:10005000BF08031939280A30C000C008031937281F
:100060002130F700F70B32286400C0032D28BF03AE
:1000700028280034BC013808B1003908B2003A0819
:10008000B3003B08B4003808AD003908AF003A08A7
:10009000AE003B08B0001C202D08703C031D6A28F0
:1000A0003008013A03195B28033A03196028013A22
:1000B000031965286A2886138316861383126A2813
:1000C00006138316061383126A2886128316861275
:1000D00083126A282D086E3C031D88283008013AD7
:1000E00003197928033A03197E28013A0319832852
:1000F0008828861783168613831288280617831686
:10010000061383128828861683168612831288287F
:100110002D08703C031DA6282E08013A03199728C4
:10012000033A03199C28013A0319A128A62885152A
:10013000831685118312A6288514831685108312D1
:10014000A6288517831685138312A6282D086E3CD2
:10015000031DC4282E08013A0319B528033A0319D0
:10016000BA28013A0319BF28C428851183168511BE
:100170008312C4288510831685108312C428851322
:10018000831685138312C428BD012D08703C031DFE
:100190006B292C18E6282F08013A0319D628033AB0
:1001A0000319DB28013A0319E028E5280515831611
:1001B00005118312E5280514831605108312E5281E
:1001C0000517831605138312E52800292F08013A25
:1001D0000319F128033A0319F628013A0319FB28F9
:1001E000002985158316851183120029851483162D
:1001F0008510831200298517831685138312002921
:100200000A30BF0028202E08013A03190E29033AAC
:1002100003191229013A031916291A293E10861BBF
:100220003E141A293E10061B3E141A293E10861A47
:100230003E141A292C1837292F08013A03192729A7
:10024000033A03192C29013A0319312936290511DA
:1002500083160511831236290510831605108312A3
:1002600036290513831605138312362951292F08C1
:10027000013A03194229033A03194729013A03199C
:100280004C29512985118316851183125129851016
:1002900083168510831251298513831685138312C3
:1002A00051290A30BF0028202E08013A03195F297E
:1002B000033A03196329013A031967296B29BE1010
:1002C000861BBE146B29BE10061BBE146B29BE1004
:1002D000861ABE146B292D086E3C031D112A2C189A
:1002E0008C292F08013A03197C29033A0319812923
:1002F000013A031986298B290511831605118312EA
:100300008B2905108316051083128B29051383167C
:10031000051383128B29A6292F08013A031997295F
:10032000033A03199C29013A0319A129A629851129
:10033000831685118312A6298510831685108312D2
:10034000A6298513831685138312A6290A30BF00B8
:1003500028202E08013A0319B429033A0319B829B1
:10036000013A0319BC29C029BE10861BBE14C0293E
:10037000BE10061BBE14C029BE10861ABE14C029AA
:100380002C18DD292F08013A0319CD29033A031946
:10039000D229013A0319D729DC290515831605113D
:1003A0008312DC290514831605108312DC29051736
:1003B000831605138312DC29F7292F08013A031944
:1003C000E829033A0319ED29013A0319F229F7291B
:1003D0008515831685118312F729851483168510D8
:1003E0008312F7298517831685138312F7290A309C
:1003F000BF0028202E08013A0319052A033A0319E1
:10040000092A013A03190D2A112A3E10861B3E14AF
:10041000112A3E10061B3E14112A3E10861A3E1465
:10042000112A3E18172ABE1C172A0130BD003D08AC
:10043000F8007808BC0000342030CD00C901CA01A2
:10044000CB01CC014408FA004308F9004208F80047
:100450004108F7000310771C3B2A4508C9074608E6
:100460000318460FCA0747080318470FCB07480869
:100470000318480FCC07CC0CCB0CCA0CC90CFA0CD7
:10048000F90CF80CF70CCD0B2A2A00343D08C400F7
:100490003C08C3003B08C2003A08C1002B08C80052
:1004A0002A08C7002908C6002808C5001C227708AA
:1004B0002407A0002508A10078080318780FA107D9
:1004C0002608A20079080318790FA2072708A300BD
:1004D0007A0803187A0FA307722FC401C301C2015F
:1004E0003808C1002708C8002608C7002508C6002C
:1004F0002408C5001C2277082007A8002108A900AD
:1005000078080318780FA9072208AA0079080318A9
:10051000790FAA072308AB007A0803187A0FAB07F4
:100520002308C4002208C3002108C2002008C1001B
:100530002B08C8002A08C7002908C6002808C500DB
:100540001C227A08BC007908BB007808BA0077083A
:10055000B900C001FF30BF00BE01BD01F701F801C5
:10056000F9013C08FA00F708031DBF2AF808031D2B
:10057000BF2AF908031DBF2AFA080319C42AC001BB
:10058000BF01BE01FF30BD00BD08031DD02ABE085B
:10059000031DD02ABF08031DD02AC0080319002B51
:1005A00020082802C1002908C2002108031C210FCD
:1005B000C2022A08C3002208031C220FC3022B0810
:1005C000C4002308031C230FC40224084107A80009
:1005D0004208A90025080318250FA9074308AA0007
:1005E00026080318260FAA074408AB00270803189B
:1005F000270FAB070310C00CBF0CBE0CBD0CC42AE8
:10060000832FB901B5011C203408013A03190F2BBF
:10061000033A0319142B013A0319192B1E2B051544
:100620008316051183121E2B0514831605108312E1
:100630001E2B05178316051383121E2B3308013A50
:100640000319292B033A03192D2B013A0319312BD6
:10065000352B3810861B3814352B3810061B3814F0
:10066000352B3810861A3814352B381839143408BD
:10067000013A0319422B033A0319472B013A031994
:100680004C2B512B0511831605118312512B05108C
:10069000831605108312512B05138316051383123D
:1006A000512B3308013A03195C2B033A0319602BD1
:1006B000013A0319642B682B3810861B3814682BF9
:1006C0003810061B3814682B3810861A3814682B1B
:1006D000381CB9143408013A0319752B033A03196D
:1006E0007A2B013A03197F2B842B051583160511EC
:1006F0008312842B0514831605108312842B05178F
:10070000831605138312842B3308013A03198F2BA8
:10071000033A0319932B013A0319972B9B2B38109B
:10072000861B38149B2B3810061B38149B2B381053
:10073000861A38149B2B381839153408013A0319D6
:10074000A82B033A0319AD2B013A0319B22BB72B8F
:100750000511831605118312B72B0510831605109A
:100760008312B72B0513831605138312B72B330897
:10077000013A0319C22B033A0319C62B013A031994
:10078000CA2BCE2B3810861B3814CE2B3810061BE4
:100790003814CE2B3810861A3814CE2B381CB915C5
:1007A0001C203308013A0319DC2B033A0319E12B0F
:1007B000013A0319E62BEB2B05158316051183125D
:1007C000EB2B0514831605108312EB2B05178316EC
:1007D00005138312EB2B3408013A0319F62B033A65
:1007E0000319FA2B013A0319FE2B022C3810861B31
:1007F0003814022C3810061B3814022C3810861AB4
:100800003814022C381839163308013A03190F2C02
:10081000033A0319142C013A0319192C1E2C051143
:100820008316051183121E2C0510831605108312E2
:100830001E2C05138316051383121E2C3408013A4F
:100840000319292C033A03192D2C013A0319312CD1
:10085000352C3810861B3814352C3810061B3814EC
:10086000352C3810861A3814352C381CB916330834
:10087000013A0319422C033A0319472C013A031990
:100880004C2C512C0515831605118312512C05147F
:10089000831605108312512C051783160513831236
:1008A000512C3408013A03195C2C033A0319602CCB
:1008B000013A0319642C682C3810861B3814682CF4
:1008C0003810061B3814682C3810861A3814682C17
:1008D000381839173308013A0319752C033A0319EC
:1008E0007A2C013A03197F2C842C051183160511EB
:1008F0008312842C0510831605108312842C051393
:10090000831605138312842C3408013A03198F2CA3
:10091000033A0319932C013A0319972C9B2C381096
:10092000861B38149B2C3810061B38149B2C38104F
:10093000861A38149B2C381CB917390FA22C013099
:10094000F800A42C0030F800A62FB9080319DE2CFB
:10095000380BB82C0612BA08031D86100330BB00F2
:1009600004200616BA08031D86140330BB000420B9
:100970003808023C031DCA2C8611BA08031D8610D4
:100980000330BB0004208615BA08031D861403300B
:10099000BB0004203808033C031DDC2C0512BA08F8
:1009A000031D86100330BB0004200516BA08031D82
:1009B00086140330BB000420B903A52C0034B50114
:1009C0001C203108703C031D512D3408013A0319D5
:1009D000F02C033A0319F52C013A0319FA2CFF2CD9
:1009E0008515831685118312FF2C851483168510B7
:1009F0008312FF2C8517831685138312FF2C34086E
:100A0000013A03190A2D033A03190E2D013A03196D
:100A1000122D162D3810861B3814162D3810061B73
:100A20003814162D3810861A3814162D3308013A4A
:100A30000319212D033A0319262D013A03192B2DF1
:100A4000302D8613831686138312302D06138316DA
:100A500006138312302D8612831686128312302DD0
:100A60003408013A03193B2D033A03193F2D013A8B
:100A70000319432D472DB810861BB814472DB81005
:100A8000061BB814472DB810861AB814472D381C09
:100A90004E2DB8184E2D0130F800C12D0030F80051
:100AA000C12D31086E3C031DC12D3308013A0319D5
:100AB000602D033A0319652D013A03196A2D6F2D34
:100AC00085158316851183126F2D85148316851065
:100AD00083126F2D85178316851383126F2D3308AC
:100AE000013A03197A2D033A03197E2D013A0319AD
:100AF000822D862D3810861B3814862D3810061B43
:100B00003814862D3810861A3814862D3408013A88
:100B10000319912D033A0319962D013A03199B2DC0
:100B2000A02D8613831686138312A02D0613831619
:100B300006138312A02D8612831686128312A02D0F
:100B40003308013A0319AB2D033A0319AF2D013ACB
:100B50000319B32DB72DB810861BB814B72DB810D4
:100B6000061BB814B72DB810861AB814B72D381C48
:100B7000BE2DB818BE2D0130F800C12D0030F80090
:100B8000C12DCA2F840183131F30830583168E1550
:100B9000073083129F002C10AD010130AE000230EF
:100BA000AF000330B0000730B700061686150516F3
:100BB00006140615861483160612861105120610F1
:100BC00006118610831206120230BB000420861123
:100BD0000230BB00042005120230BB0004200610C6
:100BE0000230BB00042006110230BB000420861036
:100BF0000230BB00042006128611051206100611F1
:100C00008610B601B608031D7C2F2C10B608031DF4
:100C1000142E7030B8000130B9000230BA00033031
:100C2000BB003A207808B600B70AB608031D232E89
:100C30007030B8000130B9000330BA000230BB0098
:100C40003A207808B600B70AB608031D322E703075
:100C5000B8000230B9000130BA000330BB003A20BE
:100C60007808B600B70AB608031D412E7030B800E8
:100C70000230B9000330BA000130BB003A207808D6
:100C8000B600B70AB608031D502E7030B800033006
:100C9000B9000130BA000230BB003A207808B60033
:100CA000B70AB608031D5F2E7030B8000330B900D4
:100CB0000230BA000130BB003A207808B600B70A0B
:100CC000B608031D6E2E6E30B8000130B900023038
:100CD000BA000330BB003A207808B600B70AB6085D
:100CE000031D7D2E6E30B8000130B9000330BA000C
:100CF0000230BB003A207808B600B70AB608031DD8
:100D00008C2E6E30B8000230B9000130BA000330CA
:100D1000BB003A207808B600B70AB608031D9B2E20
:100D20006E30B8000230B9000330BA000130BB00A9
:100D30003A207808B600B70AB608031DAA2E6E300E
:100D4000B8000330B9000130BA000230BB003A20CD
:100D50007808B600B70AB608031DB92E6E30B80081
:100D60000330B9000230BA000130BB003A207808E5
:100D7000B600B70A2C14B608031DC92E7030B8008F
:100D80000130B9000230BA000330BB003A207808C5
:100D9000B600B608031DD72E7030B8000130B90078
:100DA0000330BA000230BB003A207808B600B6081B
:100DB000031DE52E7030B8000230B9000130BA00D2
:100DC0000330BB003A207808B600B608031DF32EA6
:100DD0007030B8000230B9000330BA000130BB00F7
:100DE0003A207808B600B608031D012F7030B8000D
:100DF0000330B9000130BA000230BB003A20780855
:100E0000B600B608031D0F2F7030B8000330B900CC
:100E10000230BA000130BB003A207808B600B608AC
:100E2000031D1D2F6E30B8000130B9000230BA002A
:100E30000330BB003A207808B600B608031D2B2FFC
:100E40006E30B8000130B9000330BA000230BB0088
:100E50003A207808B600B608031D392F6E30B80066
:100E60000230B9000130BA000330BB003A207808E4
:100E7000B600B608031D472F6E30B8000230B90027
:100E80000330BA000130BB003A207808B600B6083B
:100E9000031D552F6E30B8000330B9000130BA0081
:100EA0000230BB003A207808B600B608031D632F55
:100EB0006E30B8000330B9000230BA000130BB0018
:100EC0003A207808B6002C103708383C031D722FE2
:100ED00030082E072F07B900BD01BC01BB0139083E
:100EE000BA00462AB608031D7B2F0616861505167E
:100EF000061406158614022E2E08033C031D832FAC
:100F00002E08B8006D2A3108703C031D892F061089
:100F1000061531086E3C031D8F2F06110614330B86
:100F2000922F06123308023C031986113308033C42
:100F300003190512340B9D2F06163408023C0319C1
:100F400086153408033C03190516012B7808B600F2
:100F5000320BB02F0130B800B9003608BA00A52412
:100F60003208023C031DBB2F0230B8000130B9002B
:100F70003608BA00A5243208033C031DC62F0330EF
:100F8000B8000130B9003608BA00A524B608031D20
:100F9000D12FDF2C7808B600360BD02F8610D12F3A
:060FA0008614012E63001F
:02400E00343F3D
:00000001FF
;PIC16F628A
